:0300000002011BDF
:03000B000202945A
:10010000A950A851760008D9FB2275890175A882EB
:1001100075900075300FC28DD28C227581C77550D5
:1001200010755170310075703175713275723A7594
:10013000733575743975753A75763375773078809F
:10014000761208765908763075900F316E31DE31AF
:10015000DE31DE310A748031AB31DE90030031CB09
:1001600031DE74C431AB31DE787031D580E775A0F3
:1001700038C280C281D28231DEC28231DE75A00CEB
:10018000C280C281D28231DEC28231DE75A001C25C
:1001900080C281D28231DEC28231DE75A006C28089
:1001A000C281D28231DEC28231DE22F5A0C280C29B
:1001B00081D28231DEC28231DE22F5A0D280C281BC
:1001C000D28231DEC28231DE31DE22E4936005313B
:1001D000BAA380F722E6600531BA0880F822C0D0C1
:0E01E00075D008780179FFD9FED8FAD0D02268
:10020000C3940A40052441F68005E5532430F622C4
:10021000C0D075D008AA50A951A852E754F0C4F52F
:1002200053510008740F57F55351000809DAECD008
:10023000D0227882E6B4590A760075763075773028
:100240008012E6C304D4F67550017551827552765A
:100250005110803F7881E6C3D4B4590B7600757392
:1002600030757430C3800E0675500175518175521A
:10027000735110801E7880E6D4B4120B760175702D
:1002800030757131C3800C067550017551807552FF
:0D02900070511022D53005513275302832E2
:1003000020202020202054696D65202020202020DE
:03031000202000AA
:00000001FF
