:0300000002018575
:10010000C0D075D008E55075F00AA4F87AC879FF18
:10011000D9FEDAFAD8F6D0D02275500A7800884E87
:100120007590FF310053900FE590F8C44290310074
:10013000B80FEBE54EC4F590310075900075500294
:100140003100223119E54EC4F54F3119E54E454FC6
:10015000F54F22C3940A40052441F68005E5532457
:1001600030F622C0D075D008AA50A951A852E75441
:10017000F0C4F553315308740F57F5533153080940
:10018000DAECD0D0227581C775125375900F31E02B
:10019000515051505150753C047480511D51509034
:1001A0000300513D5150850A5031003143755001D3
:1001B00075514F7552603163756220A84F864F7537
:1001C000500175514F755263316375650074C551A7
:1001D0001D51507860514775500A310080B880FE3B
:1001E00075A038C280C281D2825150C282515075EE
:1001F000A00CC280C281D2825150C282515075A0DF
:1002000001C280C281D2825150C282515075A00673
:10021000C280C281D2825150C282515022F5A0C206
:1002200080C281D2825150C282515022F5A0D28028
:10023000C281D2825150C2825150515022E4936007
:1002400005512CA380F722E66005512C0880F82286
:10025000C0D075D008780179FFD9FED8FAD0D02265
:10030000456E746572206D656D6F7279204C6F63F8
:060310006174696F6E00CC
:00000001FF
