:0300000002098B67
:0C098B00787FE4F6D8FD75813D0209D2AA
:030B6900686900B8
:100A1700C100C101C102022C000002310000022EF8
:100A270000000227000001290001330004360000FE
:0C0A37000000012600012B00023400002A
:10080000E4F508F509F50AF50BF5B0F5A05390EFFE
:100810005380F0120AE9120ACE120B5F7FC0120B4E
:10082000337BFF7A0B79697D02120A44E526B40115
:10083000FBE4F508F509F52BC29475C5013000FD00
:10084000C20075C5803000FDE5215403F52AC200C1
:10085000E4F5C53000FD852130C200D294E52AFEC2
:100860007C00E42530F52DEC3EF52CE52D2509F531
:1008700009E52C3508F508052BE52BB40ABAAE08B6
:10088000AF097C007D0A1209008E0A8F0B753400B7
:10089000753503AE0AAF0B7C007D0A120900ED240A
:1008A00030FF743A2535F8A607AE0AAF0B7C007D01
:1008B0000A1209008E0A8F0BE535153570021534C2
:1008C000E535B4FFCEE534B4FFC97F80120B337B2E
:1008D000007A00793A7D04120A447F647E00120A8D
:0708E00091E4F52602082C4B
:03004B00020AB2F4
:100AB200C0E0C0D075D000C007AFC4EF248070057D
:0C0AC20085C521D200D007D0D0D0E03292
:03000B00020B1DC8
:100B1D00C0E0C0D00529E529B42006752900752649
:060B2D0001D0D0D0E0323F
:100AE900D29443C32043C30143C31053C3F743C341
:0A0AF9000443B104D2AF43C340220E
:0A0B5F00E4F58CF58AD2A9D28C22AD
:100ACE007F647E00120A787F38120B337F0E120B72
:0B0ADE00337F01120B337F80020B33CB
:100B33008F0C120B03850CA0C280120A70C2827F35
:060B4300057E00020A78A5
:100B49008F10120B038510A0D280120A70C2827F07
:060B5900057E00020A788F
:100A44008B0C8A0D890E8D0FE50FD39400401CABDF
:100A54000CAA0DA90E1208E7FF120B497401250E0A
:0C0A6400F50EE4350DF50D150F80DD22B8
:100B030075A0FFC280D281C282120A74D28230A73A
:0A0B130006C282D28280F7C282225D
:080A7000C281D2827F057E00E5
:100A7800D3EF9400EE64809480400DE4FD0DBD0535
:080A8800FCEF1F70EB1E80E87B
:010A90002243
:100A9100D3EF9400EE648094804015E4FCFD0DBD1D
:100AA10000010CBC01F8BD7EF5EF1F70E31E80E074
:010AB1002222
:10099700020800E493A3F8E493A34003F68001F26E
:1009A70008DFF48029E493A3F85407240CC8C33361
:1009B700C4540F4420C8834004F456800146F6DF30
:1009C700E4800B0102040810204080900A17E47E9F
:1009D700019360BCA3FF543F30E509541FFEE49325
:1009E700A360010ECF54C025E060A840B8E493A3EC
:1009F700FAE493A3F8E493A3C8C582C8CAC583CA17
:100A0700F0A3C8C582C8CAC583CADFE9DEE780BECE
:010A430000B2
:1008E700BB010689828A83E0225002E722BBFE020F
:0908F700E32289828A83E4932242
:10090000C2D5EC30E709B2D5E4C39DFDE49CFCEE12
:1009100030E715B2D5E4C39FFFE49EFE120936C34B
:10092000E49DFDE49CFC800312093630D507C3E446
:060930009FFFE49EFE2281
:10093600BC000BBE0029EF8DF084FFADF022E4CCA5
:10094600F875F008EF2FFFEE33FEEC33FCEE9DEC6E
:10095600984005FCEE9DFE0FD5F0E9E4CEFD22EDB4
:10096600F8F5F0EE8420D21CFEADF075F008EF2FFE
:10097600FFED33FD4007985006D5F0F222C398FDEF
:050986000FD5F0EA228C
:00000001FF
